{
  "contractName": "ERC721",
  "abi": [
    {
      "constant": true,
      "inputs": [
        {
          "name": "interfaceId",
          "type": "bytes4"
        }
      ],
      "name": "supportsInterface",
      "outputs": [
        {
          "name": "",
          "type": "bool"
        }
      ],
      "payable": false,
      "stateMutability": "view",
      "type": "function"
    },
    {
      "inputs": [],
      "payable": false,
      "stateMutability": "nonpayable",
      "type": "constructor"
    },
    {
      "anonymous": false,
      "inputs": [
        {
          "indexed": true,
          "name": "from",
          "type": "address"
        },
        {
          "indexed": true,
          "name": "to",
          "type": "address"
        },
        {
          "indexed": true,
          "name": "tokenId",
          "type": "uint256"
        }
      ],
      "name": "Transfer",
      "type": "event"
    },
    {
      "anonymous": false,
      "inputs": [
        {
          "indexed": true,
          "name": "owner",
          "type": "address"
        },
        {
          "indexed": true,
          "name": "approved",
          "type": "address"
        },
        {
          "indexed": true,
          "name": "tokenId",
          "type": "uint256"
        }
      ],
      "name": "Approval",
      "type": "event"
    },
    {
      "anonymous": false,
      "inputs": [
        {
          "indexed": true,
          "name": "owner",
          "type": "address"
        },
        {
          "indexed": true,
          "name": "operator",
          "type": "address"
        },
        {
          "indexed": false,
          "name": "approved",
          "type": "bool"
        }
      ],
      "name": "ApprovalForAll",
      "type": "event"
    },
    {
      "constant": true,
      "inputs": [
        {
          "name": "owner",
          "type": "address"
        }
      ],
      "name": "balanceOf",
      "outputs": [
        {
          "name": "",
          "type": "uint256"
        }
      ],
      "payable": false,
      "stateMutability": "view",
      "type": "function"
    },
    {
      "constant": true,
      "inputs": [
        {
          "name": "tokenId",
          "type": "uint256"
        }
      ],
      "name": "ownerOf",
      "outputs": [
        {
          "name": "",
          "type": "address"
        }
      ],
      "payable": false,
      "stateMutability": "view",
      "type": "function"
    },
    {
      "constant": false,
      "inputs": [
        {
          "name": "to",
          "type": "address"
        },
        {
          "name": "tokenId",
          "type": "uint256"
        }
      ],
      "name": "approve",
      "outputs": [],
      "payable": false,
      "stateMutability": "nonpayable",
      "type": "function"
    },
    {
      "constant": true,
      "inputs": [
        {
          "name": "tokenId",
          "type": "uint256"
        }
      ],
      "name": "getApproved",
      "outputs": [
        {
          "name": "",
          "type": "address"
        }
      ],
      "payable": false,
      "stateMutability": "view",
      "type": "function"
    },
    {
      "constant": false,
      "inputs": [
        {
          "name": "to",
          "type": "address"
        },
        {
          "name": "approved",
          "type": "bool"
        }
      ],
      "name": "setApprovalForAll",
      "outputs": [],
      "payable": false,
      "stateMutability": "nonpayable",
      "type": "function"
    },
    {
      "constant": true,
      "inputs": [
        {
          "name": "owner",
          "type": "address"
        },
        {
          "name": "operator",
          "type": "address"
        }
      ],
      "name": "isApprovedForAll",
      "outputs": [
        {
          "name": "",
          "type": "bool"
        }
      ],
      "payable": false,
      "stateMutability": "view",
      "type": "function"
    },
    {
      "constant": false,
      "inputs": [
        {
          "name": "from",
          "type": "address"
        },
        {
          "name": "to",
          "type": "address"
        },
        {
          "name": "tokenId",
          "type": "uint256"
        }
      ],
      "name": "transferFrom",
      "outputs": [],
      "payable": false,
      "stateMutability": "nonpayable",
      "type": "function"
    },
    {
      "constant": false,
      "inputs": [
        {
          "name": "from",
          "type": "address"
        },
        {
          "name": "to",
          "type": "address"
        },
        {
          "name": "tokenId",
          "type": "uint256"
        }
      ],
      "name": "safeTransferFrom",
      "outputs": [],
      "payable": false,
      "stateMutability": "nonpayable",
      "type": "function"
    },
    {
      "constant": false,
      "inputs": [
        {
          "name": "from",
          "type": "address"
        },
        {
          "name": "to",
          "type": "address"
        },
        {
          "name": "tokenId",
          "type": "uint256"
        },
        {
          "name": "_data",
          "type": "bytes"
        }
      ],
      "name": "safeTransferFrom",
      "outputs": [],
      "payable": false,
      "stateMutability": "nonpayable",
      "type": "function"
    }
  ],
  "bytecode": "0x608060405234801561001057600080fd5b5061004c6301ffc9a77c01000000000000000000000000000000000000000000000000000000000261008c640100000000026401000000009004565b6100876380ac58cd7c01000000000000000000000000000000000000000000000000000000000261008c640100000000026401000000009004565b6101b2565b63ffffffff7c010000000000000000000000000000000000000000000000000000000002817bffffffffffffffffffffffffffffffffffffffffffffffffffffffff191614151515610146576040517f08c379a000000000000000000000000000000000000000000000000000000000815260040180806020018281038252601c8152602001807f4552433136353a20696e76616c696420696e746572666163652069640000000081525060200191505060405180910390fd5b6001600080837bffffffffffffffffffffffffffffffffffffffffffffffffffffffff19167bffffffffffffffffffffffffffffffffffffffffffffffffffffffff1916815260200190815260200160002060006101000a81548160ff02191690831515021790555050565b6117d9806101c16000396000f3fe6080604052600436106100a4576000357c0100000000000000000000000000000000000000000000000000000000900463ffffffff16806301ffc9a7146100a9578063081812fc1461011b578063095ea7b31461019657806323b872dd146101f157806342842e0e1461026c5780636352211e146102e757806370a0823114610362578063a22cb465146103c7578063b88d4fde14610424578063e985e9c514610536575b600080fd5b3480156100b557600080fd5b50610101600480360360208110156100cc57600080fd5b8101908080357bffffffffffffffffffffffffffffffffffffffffffffffffffffffff191690602001909291905050506105bf565b604051808215151515815260200191505060405180910390f35b34801561012757600080fd5b506101546004803603602081101561013e57600080fd5b8101908080359060200190929190505050610626565b604051808273ffffffffffffffffffffffffffffffffffffffff1673ffffffffffffffffffffffffffffffffffffffff16815260200191505060405180910390f35b3480156101a257600080fd5b506101ef600480360360408110156101b957600080fd5b81019080803573ffffffffffffffffffffffffffffffffffffffff16906020019092919080359060200190929190505050610706565b005b3480156101fd57600080fd5b5061026a6004803603606081101561021457600080fd5b81019080803573ffffffffffffffffffffffffffffffffffffffff169060200190929190803573ffffffffffffffffffffffffffffffffffffffff16906020019092919080359060200190929190505050610969565b005b34801561027857600080fd5b506102e56004803603606081101561028f57600080fd5b81019080803573ffffffffffffffffffffffffffffffffffffffff169060200190929190803573ffffffffffffffffffffffffffffffffffffffff16906020019092919080359060200190929190505050610a1d565b005b3480156102f357600080fd5b506103206004803603602081101561030a57600080fd5b8101908080359060200190929190505050610a3e565b604051808273ffffffffffffffffffffffffffffffffffffffff1673ffffffffffffffffffffffffffffffffffffffff16815260200191505060405180910390f35b34801561036e57600080fd5b506103b16004803603602081101561038557600080fd5b81019080803573ffffffffffffffffffffffffffffffffffffffff169060200190929190505050610b4b565b6040518082815260200191505060405180910390f35b3480156103d357600080fd5b50610422600480360360408110156103ea57600080fd5b81019080803573ffffffffffffffffffffffffffffffffffffffff169060200190929190803515159060200190929190505050610c65565b005b34801561043057600080fd5b506105346004803603608081101561044757600080fd5b81019080803573ffffffffffffffffffffffffffffffffffffffff169060200190929190803573ffffffffffffffffffffffffffffffffffffffff16906020019092919080359060200190929190803590602001906401000000008111156104ae57600080fd5b8201836020820111156104c057600080fd5b803590602001918460018302840111640100000000831117156104e257600080fd5b91908080601f016020809104026020016040519081016040528093929190818152602001838380828437600081840152601f19601f820116905080830192505050505050509192919290505050610e0a565b005b34801561054257600080fd5b506105a56004803603604081101561055957600080fd5b81019080803573ffffffffffffffffffffffffffffffffffffffff169060200190929190803573ffffffffffffffffffffffffffffffffffffffff169060200190929190505050610ec1565b604051808215151515815260200191505060405180910390f35b6000806000837bffffffffffffffffffffffffffffffffffffffffffffffffffffffff19167bffffffffffffffffffffffffffffffffffffffffffffffffffffffff1916815260200190815260200160002060009054906101000a900460ff169050919050565b600061063182610f55565b15156106cb576040517f08c379a000000000000000000000000000000000000000000000000000000000815260040180806020018281038252602c8152602001807f4552433732313a20617070726f76656420717565727920666f72206e6f6e657881526020017f697374656e7420746f6b656e000000000000000000000000000000000000000081525060400191505060405180910390fd5b6002600083815260200190815260200160002060009054906101000a900473ffffffffffffffffffffffffffffffffffffffff169050919050565b600061071182610a3e565b90508073ffffffffffffffffffffffffffffffffffffffff168373ffffffffffffffffffffffffffffffffffffffff16141515156107dd576040517f08c379a00000000000000000000000000000000000000000000000000000000081526004018080602001828103825260218152602001807f4552433732313a20617070726f76616c20746f2063757272656e74206f776e6581526020017f720000000000000000000000000000000000000000000000000000000000000081525060400191505060405180910390fd5b8073ffffffffffffffffffffffffffffffffffffffff163373ffffffffffffffffffffffffffffffffffffffff16148061081d575061081c8133610ec1565b5b15156108b7576040517f08c379a00000000000000000000000000000000000000000000000000000000081526004018080602001828103825260388152602001807f4552433732313a20617070726f76652063616c6c6572206973206e6f74206f7781526020017f6e6572206e6f7220617070726f76656420666f7220616c6c000000000000000081525060400191505060405180910390fd5b826002600084815260200190815260200160002060006101000a81548173ffffffffffffffffffffffffffffffffffffffff021916908373ffffffffffffffffffffffffffffffffffffffff160217905550818373ffffffffffffffffffffffffffffffffffffffff168273ffffffffffffffffffffffffffffffffffffffff167f8c5be1e5ebec7d5bd14f71427d1e84f3dd0314c0f7b2291e5b200ac8c7c3b92560405160405180910390a4505050565b6109733382610fc7565b1515610a0d576040517f08c379a00000000000000000000000000000000000000000000000000000000081526004018080602001828103825260318152602001807f4552433732313a207472616e736665722063616c6c6572206973206e6f74206f81526020017f776e6572206e6f7220617070726f76656400000000000000000000000000000081525060400191505060405180910390fd5b610a18838383611100565b505050565b610a398383836020604051908101604052806000815250610e0a565b505050565b6000806001600084815260200190815260200160002060009054906101000a900473ffffffffffffffffffffffffffffffffffffffff169050600073ffffffffffffffffffffffffffffffffffffffff168173ffffffffffffffffffffffffffffffffffffffff1614151515610b42576040517f08c379a00000000000000000000000000000000000000000000000000000000081526004018080602001828103825260298152602001807f4552433732313a206f776e657220717565727920666f72206e6f6e657869737481526020017f656e7420746f6b656e000000000000000000000000000000000000000000000081525060400191505060405180910390fd5b80915050919050565b60008073ffffffffffffffffffffffffffffffffffffffff168273ffffffffffffffffffffffffffffffffffffffff1614151515610c17576040517f08c379a000000000000000000000000000000000000000000000000000000000815260040180806020018281038252602a8152602001807f4552433732313a2062616c616e636520717565727920666f7220746865207a6581526020017f726f20616464726573730000000000000000000000000000000000000000000081525060400191505060405180910390fd5b610c5e600360008473ffffffffffffffffffffffffffffffffffffffff1673ffffffffffffffffffffffffffffffffffffffff1681526020019081526020016000206113e5565b9050919050565b3373ffffffffffffffffffffffffffffffffffffffff168273ffffffffffffffffffffffffffffffffffffffff1614151515610d09576040517f08c379a00000000000000000000000000000000000000000000000000000000081526004018080602001828103825260198152602001807f4552433732313a20617070726f766520746f2063616c6c65720000000000000081525060200191505060405180910390fd5b80600460003373ffffffffffffffffffffffffffffffffffffffff1673ffffffffffffffffffffffffffffffffffffffff16815260200190815260200160002060008473ffffffffffffffffffffffffffffffffffffffff1673ffffffffffffffffffffffffffffffffffffffff16815260200190815260200160002060006101000a81548160ff0219169083151502179055508173ffffffffffffffffffffffffffffffffffffffff163373ffffffffffffffffffffffffffffffffffffffff167f17307eab39ab6107e8899845ad3d59bd9653f200f220920489ca2b5937696c3183604051808215151515815260200191505060405180910390a35050565b610e15848484610969565b610e21848484846113f3565b1515610ebb576040517f08c379a00000000000000000000000000000000000000000000000000000000081526004018080602001828103825260328152602001807f4552433732313a207472616e7366657220746f206e6f6e20455243373231526581526020017f63656976657220696d706c656d656e746572000000000000000000000000000081525060400191505060405180910390fd5b50505050565b6000600460008473ffffffffffffffffffffffffffffffffffffffff1673ffffffffffffffffffffffffffffffffffffffff16815260200190815260200160002060008373ffffffffffffffffffffffffffffffffffffffff1673ffffffffffffffffffffffffffffffffffffffff16815260200190815260200160002060009054906101000a900460ff16905092915050565b6000806001600084815260200190815260200160002060009054906101000a900473ffffffffffffffffffffffffffffffffffffffff169050600073ffffffffffffffffffffffffffffffffffffffff168173ffffffffffffffffffffffffffffffffffffffff161415915050919050565b6000610fd282610f55565b151561106c576040517f08c379a000000000000000000000000000000000000000000000000000000000815260040180806020018281038252602c8152602001807f4552433732313a206f70657261746f7220717565727920666f72206e6f6e657881526020017f697374656e7420746f6b656e000000000000000000000000000000000000000081525060400191505060405180910390fd5b600061107783610a3e565b90508073ffffffffffffffffffffffffffffffffffffffff168473ffffffffffffffffffffffffffffffffffffffff1614806110e657508373ffffffffffffffffffffffffffffffffffffffff166110ce84610626565b73ffffffffffffffffffffffffffffffffffffffff16145b806110f757506110f68185610ec1565b5b91505092915050565b8273ffffffffffffffffffffffffffffffffffffffff1661112082610a3e565b73ffffffffffffffffffffffffffffffffffffffff161415156111d1576040517f08c379a00000000000000000000000000000000000000000000000000000000081526004018080602001828103825260298152602001807f4552433732313a207472616e73666572206f6620746f6b656e2074686174206981526020017f73206e6f74206f776e000000000000000000000000000000000000000000000081525060400191505060405180910390fd5b600073ffffffffffffffffffffffffffffffffffffffff168273ffffffffffffffffffffffffffffffffffffffff161415151561129c576040517f08c379a00000000000000000000000000000000000000000000000000000000081526004018080602001828103825260248152602001807f4552433732313a207472616e7366657220746f20746865207a65726f2061646481526020017f726573730000000000000000000000000000000000000000000000000000000081525060400191505060405180910390fd5b6112a581611616565b6112ec600360008573ffffffffffffffffffffffffffffffffffffffff1673ffffffffffffffffffffffffffffffffffffffff1681526020019081526020016000206116d6565b611333600360008473ffffffffffffffffffffffffffffffffffffffff1673ffffffffffffffffffffffffffffffffffffffff1681526020019081526020016000206116f9565b816001600083815260200190815260200160002060006101000a81548173ffffffffffffffffffffffffffffffffffffffff021916908373ffffffffffffffffffffffffffffffffffffffff160217905550808273ffffffffffffffffffffffffffffffffffffffff168473ffffffffffffffffffffffffffffffffffffffff167fddf252ad1be2c89b69c2b068fc378daa952ba7f163c4a11628f55a4df523b3ef60405160405180910390a4505050565b600081600001549050919050565b60006114148473ffffffffffffffffffffffffffffffffffffffff1661170f565b1515611423576001905061160e565b60008473ffffffffffffffffffffffffffffffffffffffff1663150b7a02338887876040518563ffffffff167c0100000000000000000000000000000000000000000000000000000000028152600401808573ffffffffffffffffffffffffffffffffffffffff1673ffffffffffffffffffffffffffffffffffffffff1681526020018473ffffffffffffffffffffffffffffffffffffffff1673ffffffffffffffffffffffffffffffffffffffff16815260200183815260200180602001828103825283818151815260200191508051906020019080838360005b8381101561151a5780820151818401526020810190506114ff565b50505050905090810190601f1680156115475780820380516001836020036101000a031916815260200191505b5095505050505050602060405180830381600087803b15801561156957600080fd5b505af115801561157d573d6000803e3d6000fd5b505050506040513d602081101561159357600080fd5b8101908080519060200190929190505050905063150b7a027c0100000000000000000000000000000000000000000000000000000000027bffffffffffffffffffffffffffffffffffffffffffffffffffffffff1916817bffffffffffffffffffffffffffffffffffffffffffffffffffffffff1916149150505b949350505050565b600073ffffffffffffffffffffffffffffffffffffffff166002600083815260200190815260200160002060009054906101000a900473ffffffffffffffffffffffffffffffffffffffff1673ffffffffffffffffffffffffffffffffffffffff161415156116d35760006002600083815260200190815260200160002060006101000a81548173ffffffffffffffffffffffffffffffffffffffff021916908373ffffffffffffffffffffffffffffffffffffffff1602179055505b50565b6116ee6001826000015461172290919063ffffffff16565b816000018190555050565b6001816000016000828254019250508190555050565b600080823b905060008111915050919050565b600082821115151561179c576040517f08c379a000000000000000000000000000000000000000000000000000000000815260040180806020018281038252601e8152602001807f536166654d6174683a207375627472616374696f6e206f766572666c6f77000081525060200191505060405180910390fd5b60008284039050809150509291505056fea165627a7a7230582077758ff9100ce720c7fd9817c8ffd2ffaa914bb59d429cd7c6eb5db90ae2336e0029",
  "source": "// File: @openzeppelin/contracts/introspection/IERC165.sol\n\npragma solidity ^0.5.0;\n\n/**\n * @dev Interface of the ERC165 standard, as defined in the\n * [EIP](https://eips.ethereum.org/EIPS/eip-165).\n *\n * Implementers can declare support of contract interfaces, which can then be\n * queried by others (`ERC165Checker`).\n *\n * For an implementation, see `ERC165`.\n */\ninterface IERC165 {\n  /**\n   * @dev Returns true if this contract implements the interface defined by\n   * `interfaceId`. See the corresponding\n   * [EIP section](https://eips.ethereum.org/EIPS/eip-165#how-interfaces-are-identified)\n   * to learn more about how these ids are created.\n   *\n   * This function call must use less than 30 000 gas.\n   */\n  function supportsInterface(bytes4 interfaceId) external view returns (bool);\n}\n\n// File: @openzeppelin/contracts/token/ERC721/IERC721.sol\n\npragma solidity ^0.5.0;\n\n/**\n * @dev Required interface of an ERC721 compliant contract.\n */\ncontract IERC721 is IERC165 {\n  event Transfer(\n    address indexed from,\n    address indexed to,\n    uint256 indexed tokenId\n  );\n  event Approval(\n    address indexed owner,\n    address indexed approved,\n    uint256 indexed tokenId\n  );\n  event ApprovalForAll(\n    address indexed owner,\n    address indexed operator,\n    bool approved\n  );\n\n  /**\n   * @dev Returns the number of NFTs in `owner`'s account.\n   */\n  function balanceOf(address owner) public view returns (uint256 balance);\n\n  /**\n   * @dev Returns the owner of the NFT specified by `tokenId`.\n   */\n  function ownerOf(uint256 tokenId) public view returns (address owner);\n\n  /**\n   * @dev Transfers a specific NFT (`tokenId`) from one account (`from`) to\n   * another (`to`).\n   *\n   *\n   *\n   * Requirements:\n   * - `from`, `to` cannot be zero.\n   * - `tokenId` must be owned by `from`.\n   * - If the caller is not `from`, it must be have been allowed to move this\n   * NFT by either `approve` or `setApproveForAll`.\n   */\n  function safeTransferFrom(\n    address from,\n    address to,\n    uint256 tokenId\n  ) public;\n\n  /**\n   * @dev Transfers a specific NFT (`tokenId`) from one account (`from`) to\n   * another (`to`).\n   *\n   * Requirements:\n   * - If the caller is not `from`, it must be approved to move this NFT by\n   * either `approve` or `setApproveForAll`.\n   */\n  function transferFrom(\n    address from,\n    address to,\n    uint256 tokenId\n  ) public;\n\n  function approve(address to, uint256 tokenId) public;\n\n  function getApproved(uint256 tokenId) public view returns (address operator);\n\n  function setApprovalForAll(address operator, bool _approved) public;\n\n  function isApprovedForAll(address owner, address operator)\n    public\n    view\n    returns (bool);\n\n  function safeTransferFrom(\n    address from,\n    address to,\n    uint256 tokenId,\n    bytes memory data\n  ) public;\n}\n\n// File: @openzeppelin/contracts/token/ERC721/IERC721Receiver.sol\n\npragma solidity ^0.5.0;\n\n/**\n * @title ERC721 token receiver interface\n * @dev Interface for any contract that wants to support safeTransfers\n * from ERC721 asset contracts.\n */\ncontract IERC721Receiver {\n  /**\n   * @notice Handle the receipt of an NFT\n   * @dev The ERC721 smart contract calls this function on the recipient\n   * after a `safeTransfer`. This function MUST return the function selector,\n   * otherwise the caller will revert the transaction. The selector to be\n   * returned can be obtained as `this.onERC721Received.selector`. This\n   * function MAY throw to revert and reject the transfer.\n   * Note: the ERC721 contract address is always the message sender.\n   * @param operator The address which called `safeTransferFrom` function\n   * @param from The address which previously owned the token\n   * @param tokenId The NFT identifier which is being transferred\n   * @param data Additional data with no specified format\n   * @return bytes4 `bytes4(keccak256(\"onERC721Received(address,address,uint256,bytes)\"))`\n   */\n  function onERC721Received(\n    address operator,\n    address from,\n    uint256 tokenId,\n    bytes memory data\n  ) public returns (bytes4);\n}\n\n// File: @openzeppelin/contracts/math/SafeMath.sol\n\npragma solidity ^0.5.0;\n\n/**\n * @dev Wrappers over Solidity's arithmetic operations with added overflow\n * checks.\n *\n * Arithmetic operations in Solidity wrap on overflow. This can easily result\n * in bugs, because programmers usually assume that an overflow raises an\n * error, which is the standard behavior in high level programming languages.\n * `SafeMath` restores this intuition by reverting the transaction when an\n * operation overflows.\n *\n * Using this library instead of the unchecked operations eliminates an entire\n * class of bugs, so it's recommended to use it always.\n */\nlibrary SafeMath {\n  /**\n   * @dev Returns the addition of two unsigned integers, reverting on\n   * overflow.\n   *\n   * Counterpart to Solidity's `+` operator.\n   *\n   * Requirements:\n   * - Addition cannot overflow.\n   */\n  function add(uint256 a, uint256 b) internal pure returns (uint256) {\n    uint256 c = a + b;\n    require(c >= a, \"SafeMath: addition overflow\");\n\n    return c;\n  }\n\n  /**\n   * @dev Returns the subtraction of two unsigned integers, reverting on\n   * overflow (when the result is negative).\n   *\n   * Counterpart to Solidity's `-` operator.\n   *\n   * Requirements:\n   * - Subtraction cannot overflow.\n   */\n  function sub(uint256 a, uint256 b) internal pure returns (uint256) {\n    require(b <= a, \"SafeMath: subtraction overflow\");\n    uint256 c = a - b;\n\n    return c;\n  }\n\n  /**\n   * @dev Returns the multiplication of two unsigned integers, reverting on\n   * overflow.\n   *\n   * Counterpart to Solidity's `*` operator.\n   *\n   * Requirements:\n   * - Multiplication cannot overflow.\n   */\n  function mul(uint256 a, uint256 b) internal pure returns (uint256) {\n    // Gas optimization: this is cheaper than requiring 'a' not being zero, but the\n    // benefit is lost if 'b' is also tested.\n    // See: https://github.com/OpenZeppelin/openzeppelin-contracts/pull/522\n    if (a == 0) {\n      return 0;\n    }\n\n    uint256 c = a * b;\n    require(c / a == b, \"SafeMath: multiplication overflow\");\n\n    return c;\n  }\n\n  /**\n   * @dev Returns the integer division of two unsigned integers. Reverts on\n   * division by zero. The result is rounded towards zero.\n   *\n   * Counterpart to Solidity's `/` operator. Note: this function uses a\n   * `revert` opcode (which leaves remaining gas untouched) while Solidity\n   * uses an invalid opcode to revert (consuming all remaining gas).\n   *\n   * Requirements:\n   * - The divisor cannot be zero.\n   */\n  function div(uint256 a, uint256 b) internal pure returns (uint256) {\n    // Solidity only automatically asserts when dividing by 0\n    require(b > 0, \"SafeMath: division by zero\");\n    uint256 c = a / b;\n    // assert(a == b * c + a % b); // There is no case in which this doesn't hold\n\n    return c;\n  }\n\n  /**\n   * @dev Returns the remainder of dividing two unsigned integers. (unsigned integer modulo),\n   * Reverts when dividing by zero.\n   *\n   * Counterpart to Solidity's `%` operator. This function uses a `revert`\n   * opcode (which leaves remaining gas untouched) while Solidity uses an\n   * invalid opcode to revert (consuming all remaining gas).\n   *\n   * Requirements:\n   * - The divisor cannot be zero.\n   */\n  function mod(uint256 a, uint256 b) internal pure returns (uint256) {\n    require(b != 0, \"SafeMath: modulo by zero\");\n    return a % b;\n  }\n}\n\n// File: @openzeppelin/contracts/utils/Address.sol\n\npragma solidity ^0.5.0;\n\n/**\n * @dev Collection of functions related to the address type,\n */\nlibrary Address {\n  /**\n   * @dev Returns true if `account` is a contract.\n   *\n   * This test is non-exhaustive, and there may be false-negatives: during the\n   * execution of a contract's constructor, its address will be reported as\n   * not containing a contract.\n   *\n   * > It is unsafe to assume that an address for which this function returns\n   * false is an externally-owned account (EOA) and not a contract.\n   */\n  function isContract(address account) internal view returns (bool) {\n    // This method relies in extcodesize, which returns 0 for contracts in\n    // construction, since the code is only stored at the end of the\n    // constructor execution.\n\n    uint256 size;\n    // solhint-disable-next-line no-inline-assembly\n    assembly {\n      size := extcodesize(account)\n    }\n    return size > 0;\n  }\n}\n\n// File: @openzeppelin/contracts/drafts/Counters.sol\n\npragma solidity ^0.5.0;\n\n/**\n * @title Counters\n * @author Matt Condon (@shrugs)\n * @dev Provides counters that can only be incremented or decremented by one. This can be used e.g. to track the number\n * of elements in a mapping, issuing ERC721 ids, or counting request ids.\n *\n * Include with `using Counters for Counters.Counter;`\n * Since it is not possible to overflow a 256 bit integer with increments of one, `increment` can skip the SafeMath\n * overflow check, thereby saving gas. This does assume however correct usage, in that the underlying `_value` is never\n * directly accessed.\n */\nlibrary Counters {\n  using SafeMath for uint256;\n\n  struct Counter {\n    // This variable should never be directly accessed by users of the library: interactions must be restricted to\n    // the library's function. As of Solidity v0.5.2, this cannot be enforced, though there is a proposal to add\n    // this feature: see https://github.com/ethereum/solidity/issues/4637\n    uint256 _value; // default: 0\n  }\n\n  function current(Counter storage counter) internal view returns (uint256) {\n    return counter._value;\n  }\n\n  function increment(Counter storage counter) internal {\n    counter._value += 1;\n  }\n\n  function decrement(Counter storage counter) internal {\n    counter._value = counter._value.sub(1);\n  }\n}\n\n// File: @openzeppelin/contracts/introspection/ERC165.sol\n\npragma solidity ^0.5.0;\n\n/**\n * @dev Implementation of the `IERC165` interface.\n *\n * Contracts may inherit from this and call `_registerInterface` to declare\n * their support of an interface.\n */\ncontract ERC165 is IERC165 {\n  /*\n   * bytes4(keccak256('supportsInterface(bytes4)')) == 0x01ffc9a7\n   */\n  bytes4 private constant _INTERFACE_ID_ERC165 = 0x01ffc9a7;\n\n  /**\n   * @dev Mapping of interface ids to whether or not it's supported.\n   */\n  mapping(bytes4 => bool) private _supportedInterfaces;\n\n  constructor() internal {\n    // Derived contracts need only register support for their own interfaces,\n    // we register support for ERC165 itself here\n    _registerInterface(_INTERFACE_ID_ERC165);\n  }\n\n  /**\n   * @dev See `IERC165.supportsInterface`.\n   *\n   * Time complexity O(1), guaranteed to always use less than 30 000 gas.\n   */\n  function supportsInterface(bytes4 interfaceId) external view returns (bool) {\n    return _supportedInterfaces[interfaceId];\n  }\n\n  /**\n   * @dev Registers the contract as an implementer of the interface defined by\n   * `interfaceId`. Support of the actual ERC165 interface is automatic and\n   * registering its interface id is not required.\n   *\n   * See `IERC165.supportsInterface`.\n   *\n   * Requirements:\n   *\n   * - `interfaceId` cannot be the ERC165 invalid interface (`0xffffffff`).\n   */\n  function _registerInterface(bytes4 interfaceId) internal {\n    require(interfaceId != 0xffffffff, \"ERC165: invalid interface id\");\n    _supportedInterfaces[interfaceId] = true;\n  }\n}\n\n// File: @openzeppelin/contracts/token/ERC721/ERC721.sol\n\npragma solidity ^0.5.0;\n\n/**\n * @title ERC721 Non-Fungible Token Standard basic implementation\n * @dev see https://eips.ethereum.org/EIPS/eip-721\n */\ncontract ERC721 is ERC165, IERC721 {\n  using SafeMath for uint256;\n  using Address for address;\n  using Counters for Counters.Counter;\n\n  // Equals to `bytes4(keccak256(\"onERC721Received(address,address,uint256,bytes)\"))`\n  // which can be also obtained as `IERC721Receiver(0).onERC721Received.selector`\n  bytes4 private constant _ERC721_RECEIVED = 0x150b7a02;\n\n  // Mapping from token ID to owner\n  mapping(uint256 => address) private _tokenOwner;\n\n  // Mapping from token ID to approved address\n  mapping(uint256 => address) private _tokenApprovals;\n\n  // Mapping from owner to number of owned token\n  mapping(address => Counters.Counter) private _ownedTokensCount;\n\n  // Mapping from owner to operator approvals\n  mapping(address => mapping(address => bool)) private _operatorApprovals;\n\n  /*\n   *     bytes4(keccak256('balanceOf(address)')) == 0x70a08231\n   *     bytes4(keccak256('ownerOf(uint256)')) == 0x6352211e\n   *     bytes4(keccak256('approve(address,uint256)')) == 0x095ea7b3\n   *     bytes4(keccak256('getApproved(uint256)')) == 0x081812fc\n   *     bytes4(keccak256('setApprovalForAll(address,bool)')) == 0xa22cb465\n   *     bytes4(keccak256('isApprovedForAll(address,address)')) == 0xe985e9c\n   *     bytes4(keccak256('transferFrom(address,address,uint256)')) == 0x23b872dd\n   *     bytes4(keccak256('safeTransferFrom(address,address,uint256)')) == 0x42842e0e\n   *     bytes4(keccak256('safeTransferFrom(address,address,uint256,bytes)')) == 0xb88d4fde\n   *\n   *     => 0x70a08231 ^ 0x6352211e ^ 0x095ea7b3 ^ 0x081812fc ^\n   *        0xa22cb465 ^ 0xe985e9c ^ 0x23b872dd ^ 0x42842e0e ^ 0xb88d4fde == 0x80ac58cd\n   */\n  bytes4 private constant _INTERFACE_ID_ERC721 = 0x80ac58cd;\n\n  constructor() public {\n    // register the supported interfaces to conform to ERC721 via ERC165\n    _registerInterface(_INTERFACE_ID_ERC721);\n  }\n\n  /**\n   * @dev Gets the balance of the specified address.\n   * @param owner address to query the balance of\n   * @return uint256 representing the amount owned by the passed address\n   */\n  function balanceOf(address owner) public view returns (uint256) {\n    require(owner != address(0), \"ERC721: balance query for the zero address\");\n\n    return _ownedTokensCount[owner].current();\n  }\n\n  /**\n   * @dev Gets the owner of the specified token ID.\n   * @param tokenId uint256 ID of the token to query the owner of\n   * @return address currently marked as the owner of the given token ID\n   */\n  function ownerOf(uint256 tokenId) public view returns (address) {\n    address owner = _tokenOwner[tokenId];\n    require(owner != address(0), \"ERC721: owner query for nonexistent token\");\n\n    return owner;\n  }\n\n  /**\n   * @dev Approves another address to transfer the given token ID\n   * The zero address indicates there is no approved address.\n   * There can only be one approved address per token at a given time.\n   * Can only be called by the token owner or an approved operator.\n   * @param to address to be approved for the given token ID\n   * @param tokenId uint256 ID of the token to be approved\n   */\n  function approve(address to, uint256 tokenId) public {\n    address owner = ownerOf(tokenId);\n    require(to != owner, \"ERC721: approval to current owner\");\n\n    require(\n      msg.sender == owner || isApprovedForAll(owner, msg.sender),\n      \"ERC721: approve caller is not owner nor approved for all\"\n    );\n\n    _tokenApprovals[tokenId] = to;\n    emit Approval(owner, to, tokenId);\n  }\n\n  /**\n   * @dev Gets the approved address for a token ID, or zero if no address set\n   * Reverts if the token ID does not exist.\n   * @param tokenId uint256 ID of the token to query the approval of\n   * @return address currently approved for the given token ID\n   */\n  function getApproved(uint256 tokenId) public view returns (address) {\n    require(_exists(tokenId), \"ERC721: approved query for nonexistent token\");\n\n    return _tokenApprovals[tokenId];\n  }\n\n  /**\n   * @dev Sets or unsets the approval of a given operator\n   * An operator is allowed to transfer all tokens of the sender on their behalf.\n   * @param to operator address to set the approval\n   * @param approved representing the status of the approval to be set\n   */\n  function setApprovalForAll(address to, bool approved) public {\n    require(to != msg.sender, \"ERC721: approve to caller\");\n\n    _operatorApprovals[msg.sender][to] = approved;\n    emit ApprovalForAll(msg.sender, to, approved);\n  }\n\n  /**\n   * @dev Tells whether an operator is approved by a given owner.\n   * @param owner owner address which you want to query the approval of\n   * @param operator operator address which you want to query the approval of\n   * @return bool whether the given operator is approved by the given owner\n   */\n  function isApprovedForAll(address owner, address operator)\n    public\n    view\n    returns (bool)\n  {\n    return _operatorApprovals[owner][operator];\n  }\n\n  /**\n   * @dev Transfers the ownership of a given token ID to another address.\n   * Usage of this method is discouraged, use `safeTransferFrom` whenever possible.\n   * Requires the msg.sender to be the owner, approved, or operator.\n   * @param from current owner of the token\n   * @param to address to receive the ownership of the given token ID\n   * @param tokenId uint256 ID of the token to be transferred\n   */\n  function transferFrom(\n    address from,\n    address to,\n    uint256 tokenId\n  ) public {\n    //solhint-disable-next-line max-line-length\n    require(\n      _isApprovedOrOwner(msg.sender, tokenId),\n      \"ERC721: transfer caller is not owner nor approved\"\n    );\n\n    _transferFrom(from, to, tokenId);\n  }\n\n  /**\n   * @dev Safely transfers the ownership of a given token ID to another address\n   * If the target address is a contract, it must implement `onERC721Received`,\n   * which is called upon a safe transfer, and return the magic value\n   * `bytes4(keccak256(\"onERC721Received(address,address,uint256,bytes)\"))`; otherwise,\n   * the transfer is reverted.\n   * Requires the msg.sender to be the owner, approved, or operator\n   * @param from current owner of the token\n   * @param to address to receive the ownership of the given token ID\n   * @param tokenId uint256 ID of the token to be transferred\n   */\n  function safeTransferFrom(\n    address from,\n    address to,\n    uint256 tokenId\n  ) public {\n    safeTransferFrom(from, to, tokenId, \"\");\n  }\n\n  /**\n   * @dev Safely transfers the ownership of a given token ID to another address\n   * If the target address is a contract, it must implement `onERC721Received`,\n   * which is called upon a safe transfer, and return the magic value\n   * `bytes4(keccak256(\"onERC721Received(address,address,uint256,bytes)\"))`; otherwise,\n   * the transfer is reverted.\n   * Requires the msg.sender to be the owner, approved, or operator\n   * @param from current owner of the token\n   * @param to address to receive the ownership of the given token ID\n   * @param tokenId uint256 ID of the token to be transferred\n   * @param _data bytes data to send along with a safe transfer check\n   */\n  function safeTransferFrom(\n    address from,\n    address to,\n    uint256 tokenId,\n    bytes memory _data\n  ) public {\n    transferFrom(from, to, tokenId);\n    require(\n      _checkOnERC721Received(from, to, tokenId, _data),\n      \"ERC721: transfer to non ERC721Receiver implementer\"\n    );\n  }\n\n  /**\n   * @dev Returns whether the specified token exists.\n   * @param tokenId uint256 ID of the token to query the existence of\n   * @return bool whether the token exists\n   */\n  function _exists(uint256 tokenId) internal view returns (bool) {\n    address owner = _tokenOwner[tokenId];\n    return owner != address(0);\n  }\n\n  /**\n   * @dev Returns whether the given spender can transfer a given token ID.\n   * @param spender address of the spender to query\n   * @param tokenId uint256 ID of the token to be transferred\n   * @return bool whether the msg.sender is approved for the given token ID,\n   * is an operator of the owner, or is the owner of the token\n   */\n  function _isApprovedOrOwner(address spender, uint256 tokenId)\n    internal\n    view\n    returns (bool)\n  {\n    require(_exists(tokenId), \"ERC721: operator query for nonexistent token\");\n    address owner = ownerOf(tokenId);\n    return (spender == owner ||\n      getApproved(tokenId) == spender ||\n      isApprovedForAll(owner, spender));\n  }\n\n  /**\n   * @dev Internal function to mint a new token.\n   * Reverts if the given token ID already exists.\n   * @param to The address that will own the minted token\n   * @param tokenId uint256 ID of the token to be minted\n   */\n  function _mint(address to, uint256 tokenId) internal {\n    require(to != address(0), \"ERC721: mint to the zero address\");\n    require(!_exists(tokenId), \"ERC721: token already minted\");\n\n    _tokenOwner[tokenId] = to;\n    _ownedTokensCount[to].increment();\n\n    emit Transfer(address(0), to, tokenId);\n  }\n\n  /**\n   * @dev Internal function to burn a specific token.\n   * Reverts if the token does not exist.\n   * Deprecated, use _burn(uint256) instead.\n   * @param owner owner of the token to burn\n   * @param tokenId uint256 ID of the token being burned\n   */\n  function _burn(address owner, uint256 tokenId) internal {\n    require(ownerOf(tokenId) == owner, \"ERC721: burn of token that is not own\");\n\n    _clearApproval(tokenId);\n\n    _ownedTokensCount[owner].decrement();\n    _tokenOwner[tokenId] = address(0);\n\n    emit Transfer(owner, address(0), tokenId);\n  }\n\n  /**\n   * @dev Internal function to burn a specific token.\n   * Reverts if the token does not exist.\n   * @param tokenId uint256 ID of the token being burned\n   */\n  function _burn(uint256 tokenId) internal {\n    _burn(ownerOf(tokenId), tokenId);\n  }\n\n  /**\n   * @dev Internal function to transfer ownership of a given token ID to another address.\n   * As opposed to transferFrom, this imposes no restrictions on msg.sender.\n   * @param from current owner of the token\n   * @param to address to receive the ownership of the given token ID\n   * @param tokenId uint256 ID of the token to be transferred\n   */\n  function _transferFrom(\n    address from,\n    address to,\n    uint256 tokenId\n  ) internal {\n    require(\n      ownerOf(tokenId) == from,\n      \"ERC721: transfer of token that is not own\"\n    );\n    require(to != address(0), \"ERC721: transfer to the zero address\");\n\n    _clearApproval(tokenId);\n\n    _ownedTokensCount[from].decrement();\n    _ownedTokensCount[to].increment();\n\n    _tokenOwner[tokenId] = to;\n\n    emit Transfer(from, to, tokenId);\n  }\n\n  /**\n   * @dev Internal function to invoke `onERC721Received` on a target address.\n   * The call is not executed if the target address is not a contract.\n   *\n   * This function is deprecated.\n   * @param from address representing the previous owner of the given token ID\n   * @param to target address that will receive the tokens\n   * @param tokenId uint256 ID of the token to be transferred\n   * @param _data bytes optional data to send along with the call\n   * @return bool whether the call correctly returned the expected magic value\n   */\n  function _checkOnERC721Received(\n    address from,\n    address to,\n    uint256 tokenId,\n    bytes memory _data\n  ) internal returns (bool) {\n    if (!to.isContract()) {\n      return true;\n    }\n\n    bytes4 retval = IERC721Receiver(to).onERC721Received(\n      msg.sender,\n      from,\n      tokenId,\n      _data\n    );\n    return (retval == _ERC721_RECEIVED);\n  }\n\n  /**\n   * @dev Private function to clear current approval of a given token ID.\n   * @param tokenId uint256 ID of the token to be transferred\n   */\n  function _clearApproval(uint256 tokenId) private {\n    if (_tokenApprovals[tokenId] != address(0)) {\n      _tokenApprovals[tokenId] = address(0);\n    }\n  }\n}\n\n// File: @openzeppelin/contracts/token/ERC721/IERC721Enumerable.sol\n\npragma solidity ^0.5.0;\n\n/**\n * @title ERC-721 Non-Fungible Token Standard, optional enumeration extension\n * @dev See https://eips.ethereum.org/EIPS/eip-721\n */\ncontract IERC721Enumerable is IERC721 {\n  function totalSupply() public view returns (uint256);\n\n  function tokenOfOwnerByIndex(address owner, uint256 index)\n    public\n    view\n    returns (uint256 tokenId);\n\n  function tokenByIndex(uint256 index) public view returns (uint256);\n}\n\n// File: @openzeppelin/contracts/token/ERC721/ERC721Enumerable.sol\n\npragma solidity ^0.5.0;\n\n/**\n * @title ERC-721 Non-Fungible Token with optional enumeration extension logic\n * @dev See https://eips.ethereum.org/EIPS/eip-721\n */\ncontract ERC721Enumerable is ERC165, ERC721, IERC721Enumerable {\n  // Mapping from owner to list of owned token IDs\n  mapping(address => uint256[]) private _ownedTokens;\n\n  // Mapping from token ID to index of the owner tokens list\n  mapping(uint256 => uint256) private _ownedTokensIndex;\n\n  // Array with all token ids, used for enumeration\n  uint256[] private _allTokens;\n\n  // Mapping from token id to position in the allTokens array\n  mapping(uint256 => uint256) private _allTokensIndex;\n\n  /*\n   *     bytes4(keccak256('totalSupply()')) == 0x18160ddd\n   *     bytes4(keccak256('tokenOfOwnerByIndex(address,uint256)')) == 0x2f745c59\n   *     bytes4(keccak256('tokenByIndex(uint256)')) == 0x4f6ccce7\n   *\n   *     => 0x18160ddd ^ 0x2f745c59 ^ 0x4f6ccce7 == 0x780e9d63\n   */\n  bytes4 private constant _INTERFACE_ID_ERC721_ENUMERABLE = 0x780e9d63;\n\n  /**\n   * @dev Constructor function.\n   */\n  constructor() public {\n    // register the supported interface to conform to ERC721Enumerable via ERC165\n    _registerInterface(_INTERFACE_ID_ERC721_ENUMERABLE);\n  }\n\n  /**\n   * @dev Gets the token ID at a given index of the tokens list of the requested owner.\n   * @param owner address owning the tokens list to be accessed\n   * @param index uint256 representing the index to be accessed of the requested tokens list\n   * @return uint256 token ID at the given index of the tokens list owned by the requested address\n   */\n  function tokenOfOwnerByIndex(address owner, uint256 index)\n    public\n    view\n    returns (uint256)\n  {\n    require(\n      index < balanceOf(owner),\n      \"ERC721Enumerable: owner index out of bounds\"\n    );\n    return _ownedTokens[owner][index];\n  }\n\n  /**\n   * @dev Gets the total amount of tokens stored by the contract.\n   * @return uint256 representing the total amount of tokens\n   */\n  function totalSupply() public view returns (uint256) {\n    return _allTokens.length;\n  }\n\n  /**\n   * @dev Gets the token ID at a given index of all the tokens in this contract\n   * Reverts if the index is greater or equal to the total number of tokens.\n   * @param index uint256 representing the index to be accessed of the tokens list\n   * @return uint256 token ID at the given index of the tokens list\n   */\n  function tokenByIndex(uint256 index) public view returns (uint256) {\n    require(\n      index < totalSupply(),\n      \"ERC721Enumerable: global index out of bounds\"\n    );\n    return _allTokens[index];\n  }\n\n  /**\n   * @dev Internal function to transfer ownership of a given token ID to another address.\n   * As opposed to transferFrom, this imposes no restrictions on msg.sender.\n   * @param from current owner of the token\n   * @param to address to receive the ownership of the given token ID\n   * @param tokenId uint256 ID of the token to be transferred\n   */\n  function _transferFrom(\n    address from,\n    address to,\n    uint256 tokenId\n  ) internal {\n    super._transferFrom(from, to, tokenId);\n\n    _removeTokenFromOwnerEnumeration(from, tokenId);\n\n    _addTokenToOwnerEnumeration(to, tokenId);\n  }\n\n  /**\n   * @dev Internal function to mint a new token.\n   * Reverts if the given token ID already exists.\n   * @param to address the beneficiary that will own the minted token\n   * @param tokenId uint256 ID of the token to be minted\n   */\n  function _mint(address to, uint256 tokenId) internal {\n    super._mint(to, tokenId);\n\n    _addTokenToOwnerEnumeration(to, tokenId);\n\n    _addTokenToAllTokensEnumeration(tokenId);\n  }\n\n  /**\n   * @dev Internal function to burn a specific token.\n   * Reverts if the token does not exist.\n   * Deprecated, use _burn(uint256) instead.\n   * @param owner owner of the token to burn\n   * @param tokenId uint256 ID of the token being burned\n   */\n  function _burn(address owner, uint256 tokenId) internal {\n    super._burn(owner, tokenId);\n\n    _removeTokenFromOwnerEnumeration(owner, tokenId);\n    // Since tokenId will be deleted, we can clear its slot in _ownedTokensIndex to trigger a gas refund\n    _ownedTokensIndex[tokenId] = 0;\n\n    _removeTokenFromAllTokensEnumeration(tokenId);\n  }\n\n  /**\n   * @dev Gets the list of token IDs of the requested owner.\n   * @param owner address owning the tokens\n   * @return uint256[] List of token IDs owned by the requested address\n   */\n  function _tokensOfOwner(address owner)\n    internal\n    view\n    returns (uint256[] storage)\n  {\n    return _ownedTokens[owner];\n  }\n\n  /**\n   * @dev Private function to add a token to this extension's ownership-tracking data structures.\n   * @param to address representing the new owner of the given token ID\n   * @param tokenId uint256 ID of the token to be added to the tokens list of the given address\n   */\n  function _addTokenToOwnerEnumeration(address to, uint256 tokenId) private {\n    _ownedTokensIndex[tokenId] = _ownedTokens[to].length;\n    _ownedTokens[to].push(tokenId);\n  }\n\n  /**\n   * @dev Private function to add a token to this extension's token tracking data structures.\n   * @param tokenId uint256 ID of the token to be added to the tokens list\n   */\n  function _addTokenToAllTokensEnumeration(uint256 tokenId) private {\n    _allTokensIndex[tokenId] = _allTokens.length;\n    _allTokens.push(tokenId);\n  }\n\n  /**\n   * @dev Private function to remove a token from this extension's ownership-tracking data structures. Note that\n   * while the token is not assigned a new owner, the _ownedTokensIndex mapping is _not_ updated: this allows for\n   * gas optimizations e.g. when performing a transfer operation (avoiding double writes).\n   * This has O(1) time complexity, but alters the order of the _ownedTokens array.\n   * @param from address representing the previous owner of the given token ID\n   * @param tokenId uint256 ID of the token to be removed from the tokens list of the given address\n   */\n  function _removeTokenFromOwnerEnumeration(address from, uint256 tokenId)\n    private\n  {\n    // To prevent a gap in from's tokens array, we store the last token in the index of the token to delete, and\n    // then delete the last slot (swap and pop).\n\n    uint256 lastTokenIndex = _ownedTokens[from].length.sub(1);\n    uint256 tokenIndex = _ownedTokensIndex[tokenId];\n\n    // When the token to delete is the last token, the swap operation is unnecessary\n    if (tokenIndex != lastTokenIndex) {\n      uint256 lastTokenId = _ownedTokens[from][lastTokenIndex];\n\n      _ownedTokens[from][tokenIndex] = lastTokenId; // Move the last token to the slot of the to-delete token\n      _ownedTokensIndex[lastTokenId] = tokenIndex; // Update the moved token's index\n    }\n\n    // This also deletes the contents at the last position of the array\n    _ownedTokens[from].length--;\n\n    // Note that _ownedTokensIndex[tokenId] hasn't been cleared: it still points to the old slot (now occupied by\n    // lastTokenId, or just over the end of the array if the token was the last one).\n  }\n\n  /**\n   * @dev Private function to remove a token from this extension's token tracking data structures.\n   * This has O(1) time complexity, but alters the order of the _allTokens array.\n   * @param tokenId uint256 ID of the token to be removed from the tokens list\n   */\n  function _removeTokenFromAllTokensEnumeration(uint256 tokenId) private {\n    // To prevent a gap in the tokens array, we store the last token in the index of the token to delete, and\n    // then delete the last slot (swap and pop).\n\n    uint256 lastTokenIndex = _allTokens.length.sub(1);\n    uint256 tokenIndex = _allTokensIndex[tokenId];\n\n    // When the token to delete is the last token, the swap operation is unnecessary. However, since this occurs so\n    // rarely (when the last minted token is burnt) that we still do the swap here to avoid the gas cost of adding\n    // an 'if' statement (like in _removeTokenFromOwnerEnumeration)\n    uint256 lastTokenId = _allTokens[lastTokenIndex];\n\n    _allTokens[tokenIndex] = lastTokenId; // Move the last token to the slot of the to-delete token\n    _allTokensIndex[lastTokenId] = tokenIndex; // Update the moved token's index\n\n    // This also deletes the contents at the last position of the array\n    _allTokens.length--;\n    _allTokensIndex[tokenId] = 0;\n  }\n}\n\n// File: @openzeppelin/contracts/token/ERC721/IERC721Metadata.sol\n\npragma solidity ^0.5.0;\n\n/**\n * @title ERC-721 Non-Fungible Token Standard, optional metadata extension\n * @dev See https://eips.ethereum.org/EIPS/eip-721\n */\ncontract IERC721Metadata is IERC721 {\n  function name() external view returns (string memory);\n\n  function symbol() external view returns (string memory);\n\n  function tokenURI(uint256 tokenId) external view returns (string memory);\n}\n\n// File: @openzeppelin/contracts/token/ERC721/ERC721Metadata.sol\n\npragma solidity ^0.5.0;\n\ncontract ERC721Metadata is ERC165, ERC721, IERC721Metadata {\n  // Token name\n  string private _name;\n\n  // Token symbol\n  string private _symbol;\n\n  // Optional mapping for token URIs\n  mapping(uint256 => string) private _tokenURIs;\n\n  /*\n   *     bytes4(keccak256('name()')) == 0x06fdde03\n   *     bytes4(keccak256('symbol()')) == 0x95d89b41\n   *     bytes4(keccak256('tokenURI(uint256)')) == 0xc87b56dd\n   *\n   *     => 0x06fdde03 ^ 0x95d89b41 ^ 0xc87b56dd == 0x5b5e139f\n   */\n  bytes4 private constant _INTERFACE_ID_ERC721_METADATA = 0x5b5e139f;\n\n  /**\n   * @dev Constructor function\n   */\n  constructor(string memory name, string memory symbol) public {\n    _name = name;\n    _symbol = symbol;\n\n    // register the supported interfaces to conform to ERC721 via ERC165\n    _registerInterface(_INTERFACE_ID_ERC721_METADATA);\n  }\n\n  /**\n   * @dev Gets the token name.\n   * @return string representing the token name\n   */\n  function name() external view returns (string memory) {\n    return _name;\n  }\n\n  /**\n   * @dev Gets the token symbol.\n   * @return string representing the token symbol\n   */\n  function symbol() external view returns (string memory) {\n    return _symbol;\n  }\n\n  /**\n   * @dev Returns an URI for a given token ID.\n   * Throws if the token ID does not exist. May return an empty string.\n   * @param tokenId uint256 ID of the token to query\n   */\n  function tokenURI(uint256 tokenId) external view returns (string memory) {\n    require(\n      _exists(tokenId),\n      \"ERC721Metadata: URI query for nonexistent token\"\n    );\n    return _tokenURIs[tokenId];\n  }\n\n  /**\n   * @dev Internal function to set the token URI for a given token.\n   * Reverts if the token ID does not exist.\n   * @param tokenId uint256 ID of the token to set its URI\n   * @param uri string URI to assign\n   */\n  function _setTokenURI(uint256 tokenId, string memory uri) internal {\n    require(_exists(tokenId), \"ERC721Metadata: URI set of nonexistent token\");\n    _tokenURIs[tokenId] = uri;\n  }\n\n  /**\n   * @dev Internal function to burn a specific token.\n   * Reverts if the token does not exist.\n   * Deprecated, use _burn(uint256) instead.\n   * @param owner owner of the token to burn\n   * @param tokenId uint256 ID of the token being burned by the msg.sender\n   */\n  function _burn(address owner, uint256 tokenId) internal {\n    super._burn(owner, tokenId);\n\n    // Clear metadata (if any)\n    if (bytes(_tokenURIs[tokenId]).length != 0) {\n      delete _tokenURIs[tokenId];\n    }\n  }\n}\n\n// File: @openzeppelin/contracts/token/ERC721/ERC721Full.sol\n\npragma solidity ^0.5.0;\n\n/**\n * @title Full ERC721 Token\n * This implementation includes all the required and some optional functionality of the ERC721 standard\n * Moreover, it includes approve all functionality using operator terminology\n * @dev see https://eips.ethereum.org/EIPS/eip-721\n */\ncontract ERC721Full is ERC721, ERC721Enumerable, ERC721Metadata {\n  constructor(string memory name, string memory symbol)\n    public\n    ERC721Metadata(name, symbol)\n  {\n    // solhint-disable-previous-line no-empty-blocks\n  }\n}\n",
  "sourcePath": "/Users/yashjaiswal/Desktop/nft/src/contracts/ERC721Full.sol",
  "compiler": {
    "name": "solc",
    "version": "0.5.0+commit.1d4f565a.Emscripten.clang"
  },
  "schemaVersion": "3.0.2",
  "updatedAt": "2021-08-01T12:56:54.366Z",
  "devdoc": {
    "details": "see https://eips.ethereum.org/EIPS/eip-721",
    "methods": {
      "approve(address,uint256)": {
        "details": "Approves another address to transfer the given token ID The zero address indicates there is no approved address. There can only be one approved address per token at a given time. Can only be called by the token owner or an approved operator.",
        "params": {
          "to": "address to be approved for the given token ID",
          "tokenId": "uint256 ID of the token to be approved"
        }
      },
      "balanceOf(address)": {
        "details": "Gets the balance of the specified address.",
        "params": {
          "owner": "address to query the balance of"
        },
        "return": "uint256 representing the amount owned by the passed address"
      },
      "getApproved(uint256)": {
        "details": "Gets the approved address for a token ID, or zero if no address set Reverts if the token ID does not exist.",
        "params": {
          "tokenId": "uint256 ID of the token to query the approval of"
        },
        "return": "address currently approved for the given token ID"
      },
      "isApprovedForAll(address,address)": {
        "details": "Tells whether an operator is approved by a given owner.",
        "params": {
          "operator": "operator address which you want to query the approval of",
          "owner": "owner address which you want to query the approval of"
        },
        "return": "bool whether the given operator is approved by the given owner"
      },
      "ownerOf(uint256)": {
        "details": "Gets the owner of the specified token ID.",
        "params": {
          "tokenId": "uint256 ID of the token to query the owner of"
        },
        "return": "address currently marked as the owner of the given token ID"
      },
      "safeTransferFrom(address,address,uint256)": {
        "details": "Safely transfers the ownership of a given token ID to another address If the target address is a contract, it must implement `onERC721Received`, which is called upon a safe transfer, and return the magic value `bytes4(keccak256(\"onERC721Received(address,address,uint256,bytes)\"))`; otherwise, the transfer is reverted. Requires the msg.sender to be the owner, approved, or operator",
        "params": {
          "from": "current owner of the token",
          "to": "address to receive the ownership of the given token ID",
          "tokenId": "uint256 ID of the token to be transferred"
        }
      },
      "safeTransferFrom(address,address,uint256,bytes)": {
        "details": "Safely transfers the ownership of a given token ID to another address If the target address is a contract, it must implement `onERC721Received`, which is called upon a safe transfer, and return the magic value `bytes4(keccak256(\"onERC721Received(address,address,uint256,bytes)\"))`; otherwise, the transfer is reverted. Requires the msg.sender to be the owner, approved, or operator",
        "params": {
          "_data": "bytes data to send along with a safe transfer check",
          "from": "current owner of the token",
          "to": "address to receive the ownership of the given token ID",
          "tokenId": "uint256 ID of the token to be transferred"
        }
      },
      "setApprovalForAll(address,bool)": {
        "details": "Sets or unsets the approval of a given operator An operator is allowed to transfer all tokens of the sender on their behalf.",
        "params": {
          "approved": "representing the status of the approval to be set",
          "to": "operator address to set the approval"
        }
      },
      "supportsInterface(bytes4)": {
        "details": "See `IERC165.supportsInterface`.   * Time complexity O(1), guaranteed to always use less than 30 000 gas."
      },
      "transferFrom(address,address,uint256)": {
        "details": "Transfers the ownership of a given token ID to another address. Usage of this method is discouraged, use `safeTransferFrom` whenever possible. Requires the msg.sender to be the owner, approved, or operator.",
        "params": {
          "from": "current owner of the token",
          "to": "address to receive the ownership of the given token ID",
          "tokenId": "uint256 ID of the token to be transferred"
        }
      }
    },
    "title": "ERC721 Non-Fungible Token Standard basic implementation"
  },
  "userdoc": {
    "methods": {}
  }
}